{
    "contractName": "Halal",
    "abi": [
        {
            "inputs": [],
            "stateMutability": "nonpayable",
            "type": "constructor"
        },
        {
            "anonymous": false,
            "inputs": [
                {
                    "indexed": false,
                    "internalType": "string",
                    "name": "status",
                    "type": "string"
                },
                {
                    "indexed": false,
                    "internalType": "bytes32",
                    "name": "message",
                    "type": "bytes32"
                }
            ],
            "name": "success",
            "type": "event"
        },
        {
            "inputs": [],
            "name": "owner",
            "outputs": [
                {
                    "internalType": "address",
                    "name": "",
                    "type": "address"
                }
            ],
            "stateMutability": "view",
            "type": "function",
            "constant": true
        },
        {
            "inputs": [
                {
                    "internalType": "bytes32",
                    "name": "_bytes32",
                    "type": "bytes32"
                }
            ],
            "name": "bytes32ToString",
            "outputs": [
                {
                    "internalType": "string",
                    "name": "",
                    "type": "string"
                }
            ],
            "stateMutability": "pure",
            "type": "function",
            "constant": true
        },
        {
            "inputs": [
                {
                    "internalType": "string",
                    "name": "account_id",
                    "type": "string"
                },
                {
                    "internalType": "string",
                    "name": "name",
                    "type": "string"
                },
                {
                    "internalType": "string",
                    "name": "role",
                    "type": "string"
                }
            ],
            "name": "add_account",
            "outputs": [
                {
                    "internalType": "bytes32",
                    "name": "",
                    "type": "bytes32"
                }
            ],
            "stateMutability": "nonpayable",
            "type": "function"
        },
        {
            "inputs": [
                {
                    "internalType": "string",
                    "name": "account_id",
                    "type": "string"
                }
            ],
            "name": "get_account",
            "outputs": [
                {
                    "components": [
                        {
                            "internalType": "string",
                            "name": "account_id",
                            "type": "string"
                        },
                        {
                            "internalType": "string",
                            "name": "name",
                            "type": "string"
                        },
                        {
                            "internalType": "string",
                            "name": "role",
                            "type": "string"
                        },
                        {
                            "internalType": "uint256",
                            "name": "created_at",
                            "type": "uint256"
                        }
                    ],
                    "internalType": "struct Halal.accountData",
                    "name": "",
                    "type": "tuple"
                }
            ],
            "stateMutability": "view",
            "type": "function",
            "constant": true
        },
        {
            "inputs": [
                {
                    "internalType": "string",
                    "name": "transaction_id",
                    "type": "string"
                },
                {
                    "internalType": "string",
                    "name": "user_id",
                    "type": "string"
                },
                {
                    "internalType": "string",
                    "name": "data",
                    "type": "string"
                }
            ],
            "name": "add_transaction",
            "outputs": [
                {
                    "internalType": "bytes32",
                    "name": "",
                    "type": "bytes32"
                }
            ],
            "stateMutability": "nonpayable",
            "type": "function"
        },
        {
            "inputs": [
                {
                    "internalType": "string",
                    "name": "transaction_id",
                    "type": "string"
                }
            ],
            "name": "get_transaction",
            "outputs": [
                {
                    "components": [
                        {
                            "internalType": "string",
                            "name": "user_id",
                            "type": "string"
                        },
                        {
                            "internalType": "string",
                            "name": "data",
                            "type": "string"
                        }
                    ],
                    "internalType": "struct Halal.transaction",
                    "name": "",
                    "type": "tuple"
                }
            ],
            "stateMutability": "view",
            "type": "function",
            "constant": true
        },
        {
            "inputs": [
                {
                    "internalType": "string",
                    "name": "umkm_id",
                    "type": "string"
                },
                {
                    "internalType": "string",
                    "name": "cert_id",
                    "type": "string"
                },
                {
                    "internalType": "uint256",
                    "name": "expired_at",
                    "type": "uint256"
                }
            ],
            "name": "add_certificate",
            "outputs": [
                {
                    "internalType": "bytes32",
                    "name": "",
                    "type": "bytes32"
                }
            ],
            "stateMutability": "nonpayable",
            "type": "function"
        },
        {
            "inputs": [
                {
                    "internalType": "string",
                    "name": "umkm_id",
                    "type": "string"
                }
            ],
            "name": "get_certificate",
            "outputs": [
                {
                    "components": [
                        {
                            "internalType": "string",
                            "name": "umkm_id",
                            "type": "string"
                        },
                        {
                            "internalType": "string",
                            "name": "certificate_id",
                            "type": "string"
                        },
                        {
                            "internalType": "uint256",
                            "name": "created_at",
                            "type": "uint256"
                        },
                        {
                            "internalType": "uint256",
                            "name": "expired_at",
                            "type": "uint256"
                        }
                    ],
                    "internalType": "struct Halal.certificate",
                    "name": "",
                    "type": "tuple"
                }
            ],
            "stateMutability": "view",
            "type": "function",
            "constant": true
        }
    ],
    "bytecode": "0x608060405234801561001057600080fd5b50336000806101000a81548173ffffffffffffffffffffffffffffffffffffffff021916908373ffffffffffffffffffffffffffffffffffffffff16021790555061168c806100606000396000f3fe608060405234801561001057600080fd5b50600436106100885760003560e01c8063b24c908a1161005b578063b24c908a1461013b578063b84284031461016b578063c3efbe381461019b578063ca5e208f146101cb57610088565b8063169d1f001461008d578063174ba7ff146100bd5780638da5cb5b146100ed5780639201de551461010b575b600080fd5b6100a760048036038101906100a29190610e5c565b6101fb565b6040516100b49190610f1c565b60405180910390f35b6100d760048036038101906100d29190610f37565b6102b3565b6040516100e49190611092565b60405180910390f35b6100f56104cc565b60405161010291906110f5565b60405180910390f35b6101256004803603810190610120919061113c565b6104f0565b60405161013291906111b3565b60405180910390f35b61015560048036038101906101509190610e5c565b61068b565b6040516101629190610f1c565b60405180910390f35b61018560048036038101906101809190610f37565b6107ae565b604051610192919061123f565b60405180910390f35b6101b560048036038101906101b0919061128d565b61093f565b6040516101c29190610f1c565b60405180910390f35b6101e560048036038101906101e09190610f37565b610a09565b6040516101f2919061135c565b60405180910390f35b6000808460405160200161020f91906113ba565b604051602081830303815290604052805190602001209050600060026000838152602001908152602001600020905084816000019080519060200190610256929190610bf5565b508381600101908051906020019061026f929190610bf5565b507fc8922d91fbabbe8df5d667708c678575856a856a2a465ebd9626a40ab6a16f5f8260405161029f919061141d565b60405180910390a181925050509392505050565b6102bb610c7b565b6000826040516020016102ce91906113ba565b604051602081830303815290604052805190602001209050600160008281526020019081526020016000206040518060800160405290816000820180546103149061147a565b80601f01602080910402602001604051908101604052809291908181526020018280546103409061147a565b801561038d5780601f106103625761010080835404028352916020019161038d565b820191906000526020600020905b81548152906001019060200180831161037057829003601f168201915b505050505081526020016001820180546103a69061147a565b80601f01602080910402602001604051908101604052809291908181526020018280546103d29061147a565b801561041f5780601f106103f45761010080835404028352916020019161041f565b820191906000526020600020905b81548152906001019060200180831161040257829003601f168201915b505050505081526020016002820180546104389061147a565b80601f01602080910402602001604051908101604052809291908181526020018280546104649061147a565b80156104b15780601f10610486576101008083540402835291602001916104b1565b820191906000526020600020905b81548152906001019060200180831161049457829003601f168201915b50505050508152602001600382015481525050915050919050565b60008054906101000a900473ffffffffffffffffffffffffffffffffffffffff1681565b606060005b60208160ff161080156105475750600060f81b838260ff166020811061051e5761051d6114ab565b5b1a60f81b7effffffffffffffffffffffffffffffffffffffffffffffffffffffffffffff191614155b1561055f57808061055790611516565b9150506104f5565b60008160ff1667ffffffffffffffff81111561057e5761057d610d31565b5b6040519080825280601f01601f1916602001820160405280156105b05781602001600182028036833780820191505090505b509050600091505b60208260ff1610801561060a5750600060f81b848360ff16602081106105e1576105e06114ab565b5b1a60f81b7effffffffffffffffffffffffffffffffffffffffffffffffffffffffffffff191614155b1561068157838260ff1660208110610625576106246114ab565b5b1a60f81b818360ff168151811061063f5761063e6114ab565b5b60200101907effffffffffffffffffffffffffffffffffffffffffffffffffffffffffffff1916908160001a905350818061067990611516565b9250506105b8565b8092505050919050565b6000808460405160200161069f91906113ba565b6040516020818303038152906040528051906020012090506106c18186610b86565b610700576040517f08c379a00000000000000000000000000000000000000000000000000000000081526004016106f79061158b565b60405180910390fd5b60006001600083815260200190815260200160002090508581600001908051906020019061072f929190610bf5565b5084816001019080519060200190610748929190610bf5565b5083816002019080519060200190610761929190610bf5565b504281600301819055507fc8922d91fbabbe8df5d667708c678575856a856a2a465ebd9626a40ab6a16f5f8260405161079a919061141d565b60405180910390a181925050509392505050565b6107b6610ca3565b6000826040516020016107c991906113ba565b6040516020818303038152906040528051906020012090506003600082815260200190815260200160002060405180608001604052908160008201805461080f9061147a565b80601f016020809104026020016040519081016040528092919081815260200182805461083b9061147a565b80156108885780601f1061085d57610100808354040283529160200191610888565b820191906000526020600020905b81548152906001019060200180831161086b57829003601f168201915b505050505081526020016001820180546108a19061147a565b80601f01602080910402602001604051908101604052809291908181526020018280546108cd9061147a565b801561091a5780601f106108ef5761010080835404028352916020019161091a565b820191906000526020600020905b8154815290600101906020018083116108fd57829003601f168201915b5050505050815260200160028201548152602001600382015481525050915050919050565b6000808460405160200161095391906113ba565b60405160208183030381529060405280519060200120905060006003600083815260200190815260200160002090508581600001908051906020019061099a929190610bf5565b50848160010190805190602001906109b3929190610bf5565b504281600201819055508381600301819055507fc8922d91fbabbe8df5d667708c678575856a856a2a465ebd9626a40ab6a16f5f826040516109f5919061141d565b60405180910390a181925050509392505050565b610a11610ccb565b600082604051602001610a2491906113ba565b60405160208183030381529060405280519060200120905060026000828152602001908152602001600020604051806040016040529081600082018054610a6a9061147a565b80601f0160208091040260200160405190810160405280929190818152602001828054610a969061147a565b8015610ae35780601f10610ab857610100808354040283529160200191610ae3565b820191906000526020600020905b815481529060010190602001808311610ac657829003601f168201915b50505050508152602001600182018054610afc9061147a565b80601f0160208091040260200160405190810160405280929190818152602001828054610b289061147a565b8015610b755780601f10610b4a57610100808354040283529160200191610b75565b820191906000526020600020905b815481529060010190602001808311610b5857829003601f168201915b505050505081525050915050919050565b600081604051602001610b9991906113ba565b6040516020818303038152906040528051906020012060016000858152602001908152602001600020600001604051602001610bd5919061163f565b604051602081830303815290604052805190602001201415905092915050565b828054610c019061147a565b90600052602060002090601f016020900481019282610c235760008555610c6a565b82601f10610c3c57805160ff1916838001178555610c6a565b82800160010185558215610c6a579182015b82811115610c69578251825591602001919060010190610c4e565b5b509050610c779190610ce5565b5090565b6040518060800160405280606081526020016060815260200160608152602001600081525090565b6040518060800160405280606081526020016060815260200160008152602001600081525090565b604051806040016040528060608152602001606081525090565b5b80821115610cfe576000816000905550600101610ce6565b5090565b6000604051905090565b600080fd5b600080fd5b600080fd5b600080fd5b6000601f19601f8301169050919050565b7f4e487b7100000000000000000000000000000000000000000000000000000000600052604160045260246000fd5b610d6982610d20565b810181811067ffffffffffffffff82111715610d8857610d87610d31565b5b80604052505050565b6000610d9b610d02565b9050610da78282610d60565b919050565b600067ffffffffffffffff821115610dc757610dc6610d31565b5b610dd082610d20565b9050602081019050919050565b82818337600083830152505050565b6000610dff610dfa84610dac565b610d91565b905082815260208101848484011115610e1b57610e1a610d1b565b5b610e26848285610ddd565b509392505050565b600082601f830112610e4357610e42610d16565b5b8135610e53848260208601610dec565b91505092915050565b600080600060608486031215610e7557610e74610d0c565b5b600084013567ffffffffffffffff811115610e9357610e92610d11565b5b610e9f86828701610e2e565b935050602084013567ffffffffffffffff811115610ec057610ebf610d11565b5b610ecc86828701610e2e565b925050604084013567ffffffffffffffff811115610eed57610eec610d11565b5b610ef986828701610e2e565b9150509250925092565b6000819050919050565b610f1681610f03565b82525050565b6000602082019050610f316000830184610f0d565b92915050565b600060208284031215610f4d57610f4c610d0c565b5b600082013567ffffffffffffffff811115610f6b57610f6a610d11565b5b610f7784828501610e2e565b91505092915050565b600081519050919050565b600082825260208201905092915050565b60005b83811015610fba578082015181840152602081019050610f9f565b83811115610fc9576000848401525b50505050565b6000610fda82610f80565b610fe48185610f8b565b9350610ff4818560208601610f9c565b610ffd81610d20565b840191505092915050565b6000819050919050565b61101b81611008565b82525050565b6000608083016000830151848203600086015261103e8282610fcf565b915050602083015184820360208601526110588282610fcf565b915050604083015184820360408601526110728282610fcf565b91505060608301516110876060860182611012565b508091505092915050565b600060208201905081810360008301526110ac8184611021565b905092915050565b600073ffffffffffffffffffffffffffffffffffffffff82169050919050565b60006110df826110b4565b9050919050565b6110ef816110d4565b82525050565b600060208201905061110a60008301846110e6565b92915050565b61111981610f03565b811461112457600080fd5b50565b60008135905061113681611110565b92915050565b60006020828403121561115257611151610d0c565b5b600061116084828501611127565b91505092915050565b600082825260208201905092915050565b600061118582610f80565b61118f8185611169565b935061119f818560208601610f9c565b6111a881610d20565b840191505092915050565b600060208201905081810360008301526111cd818461117a565b905092915050565b600060808301600083015184820360008601526111f28282610fcf565b9150506020830151848203602086015261120c8282610fcf565b91505060408301516112216040860182611012565b5060608301516112346060860182611012565b508091505092915050565b6000602082019050818103600083015261125981846111d5565b905092915050565b61126a81611008565b811461127557600080fd5b50565b60008135905061128781611261565b92915050565b6000806000606084860312156112a6576112a5610d0c565b5b600084013567ffffffffffffffff8111156112c4576112c3610d11565b5b6112d086828701610e2e565b935050602084013567ffffffffffffffff8111156112f1576112f0610d11565b5b6112fd86828701610e2e565b925050604061130e86828701611278565b9150509250925092565b600060408301600083015184820360008601526113358282610fcf565b9150506020830151848203602086015261134f8282610fcf565b9150508091505092915050565b600060208201905081810360008301526113768184611318565b905092915050565b600081905092915050565b600061139482610f80565b61139e818561137e565b93506113ae818560208601610f9c565b80840191505092915050565b60006113c68284611389565b915081905092915050565b7f7375636365737300000000000000000000000000000000000000000000000000600082015250565b6000611407600783611169565b9150611412826113d1565b602082019050919050565b60006040820190508181036000830152611436816113fa565b90506114456020830184610f0d565b92915050565b7f4e487b7100000000000000000000000000000000000000000000000000000000600052602260045260246000fd5b6000600282049050600182168061149257607f821691505b6020821081036114a5576114a461144b565b5b50919050565b7f4e487b7100000000000000000000000000000000000000000000000000000000600052603260045260246000fd5b7f4e487b7100000000000000000000000000000000000000000000000000000000600052601160045260246000fd5b600060ff82169050919050565b600061152182611509565b915060ff8203611534576115336114da565b5b600182019050919050565b7f4163636f756e7420616c7265616479206578697374696e670000000000000000600082015250565b6000611575601883611169565b91506115808261153f565b602082019050919050565b600060208201905081810360008301526115a481611568565b9050919050565b60008190508160005260206000209050919050565b600081546115cd8161147a565b6115d7818661137e565b945060018216600081146115f2576001811461160357611636565b60ff19831686528186019350611636565b61160c856115ab565b60005b8381101561162e5781548189015260018201915060208101905061160f565b838801955050505b50505092915050565b600061164b82846115c0565b91508190509291505056fea2646970667358221220c7c68cfbbb2aa7c19567bbe706b245cce762b35282b62e74e8550e831083acb364736f6c634300080d0033",
    "immutableReferences": {},
    "source": "// SPDX-License-Identifier: GPL-3.0\n\npragma solidity ^0.8.0;\n\ncontract Halal{\n    event success(string status, bytes32 message);\n\n    address public owner;\n\n    struct accountData {\n        string account_id;\n        string name;\n        string role;\n        uint created_at;\n    }\n\n    mapping( bytes32 => accountData ) private mappingAccount; \n\n    struct transaction{\n        string user_id;\n        string data;\n    }\n\n    mapping (bytes32 => transaction) private mappingTransaction;\n\n    struct certificate{\n        string umkm_id;\n        string certificate_id;\n        uint created_at;\n        uint expired_at;\n    }\n\n    mapping (bytes32 => certificate) private mappingCertificate;\n\n    constructor(){\n        owner = msg.sender;\n    }\n\n    function bytes32ToString(bytes32 _bytes32) public pure returns (string memory) {\n        uint8 i = 0;\n        while(i < 32 && _bytes32[i] != 0) {\n            i++;\n        }\n        bytes memory bytesArray = new bytes(i);\n        for (i = 0; i < 32 && _bytes32[i] != 0; i++) {\n            bytesArray[i] = _bytes32[i];\n        }\n        return string(bytesArray);\n    }\n\n    function account_checker(bytes32 id, string memory umkm_id) private view returns(bool){\n        return keccak256(abi.encodePacked(mappingAccount[id].account_id)) != keccak256(abi.encodePacked(umkm_id));\n    }\n\n    function add_account(\n        string memory account_id,\n        string memory name,\n        string memory role\n    ) external returns(bytes32){\n        bytes32 id = keccak256(abi.encodePacked(account_id));\n        require(account_checker(id, account_id), \"Account already existing\");\n        accountData storage acc = mappingAccount[id];\n        acc.account_id = account_id;\n        acc.name = name;\n        acc.role = role;\n        acc.created_at = block.timestamp;\n        emit success(\"success\", id);\n        return id;\n    }\n\n    function get_account(string memory account_id) public view returns(accountData memory){\n        bytes32 id = keccak256(abi.encodePacked(account_id));\n        return mappingAccount[id];\n    }\n\n    function add_transaction(\n        string memory transaction_id,\n        string memory user_id,\n        string memory data\n    ) external returns(bytes32) {\n        bytes32 id = keccak256(abi.encodePacked(transaction_id));\n        transaction storage trans = mappingTransaction[id];\n        trans.user_id = user_id;\n        trans.data = data;\n        emit success(\"success\", id);\n        return id;\n    }\n\n    function get_transaction(string memory transaction_id) external view returns(transaction memory){\n        bytes32 id = keccak256(abi.encodePacked(transaction_id));\n        return mappingTransaction[id]; \n    }\n\n    function add_certificate(string memory umkm_id, string memory cert_id, uint expired_at) external returns(bytes32){\n        bytes32 id = keccak256(abi.encodePacked(umkm_id));\n        certificate storage cert = mappingCertificate[id];\n        cert.umkm_id = umkm_id;\n        cert.certificate_id = cert_id;\n        cert.created_at = block.timestamp;\n        cert.expired_at = expired_at;\n        emit success(\"success\", id);\n        return id;\n    }\n\n    function get_certificate(string memory umkm_id) external view returns(certificate memory){\n        bytes32 id = keccak256(abi.encodePacked(umkm_id));\n        return mappingCertificate[id];\n    }\n\n}",
    "sourcePath": "/Users/alienpdev/Workspace/ETHClient/contracts/Halal.sol",
    "compiler": {
        "name": "solc",
        "version": "0.8.13+commit.abaa5c0e.Emscripten.clang"
    },
    "schemaVersion": "3.4.9",
    "updatedAt": "2022-09-12T10:19:15.588Z",
    "networkType": "ethereum",
    "devdoc": {
        "kind": "dev",
        "methods": {},
        "version": 1
    },
    "userdoc": {
        "kind": "user",
        "methods": {},
        "version": 1
    }
}